:20C000000A120912B24064191C021E421C020F433C40C0C63D402D00B012B0C8824C1E02B8
:20C0200092431802B240E8032C02B24008072802B24009001002B240800C3002B240060026
:20C0400012021E422C020F433C40C0C63D402D00B012B0C8824C2A021E4228020F433C40B4
:20C06000C0C63D402D00B012B0C8824C26021E4230020F433C40C0C63D402D00B012B0C896
:20C08000824C2E02B2409001140282432402B2406400200282432202B2431602B240805AE4
:20C0A0002001D242F8105600D242F9105700A2426001B24010006201B240D0026001B240B8
:20C0C000130072015F422100C24321005F422200C2432200F2D041002200F2D22700F2D234
:20C0E0002100F2D22500F2D22400F2C2230032D292933202FD23B29071021A020D2C1C4292
:20C100001A023D400A00B0125CC90F4C0F5F0F5F0C5C0C5F824C1402829318020D201C42ED
:20C120001A023D400A00B0125CC90C5C0C5C0C5C1C821402824C1602929318021A21929205
:20C140002A021A020D281C421A023D400A00B0125CC90C5C0C5C0C5C1C821402824C1602A8
:20C1600092922A021A025A2C929226021A0256281E421A020F433C40C0C63D402D00B012AB
:20C18000B0C81C822C020D73B012DEC7824C0402824D06021C4228021C822C021D42100204
:20C1A000B0125CC9B0121CC90F4D824C0802824F0A021C4204021D4206021E420802B012E9
:20C1C0006EC5824C0C02824D0E021C421A023D40B400B0125CC9B0121CC91E420C021F4269
:20C1E0000E02B012AAC4824C0002824D02021C421A023D400A00B0125CC90C5C0C5C0C5C3C
:20C200001C821402B0121CC91E4200021F420202B01278C3B01228C8824C1602929226021B
:20C220001A02662C92922E021A0262281E421A020F433C40C0C63D402D00B012B0C81C8204
:20C2400028020D73B012DEC7824C0402824D06021C4230021C8228021D421202B0125CC970
:20C26000B0121CC90F4D824C0802824F0A021C4204021D4206021E420802B0126EC5094C87
:20C280000A4D1C421002B0121CC90E4C0F4D0C490D4AB0127EC3824C0C02824D0E021C42B2
:20C2A0001A023D40B400B0125CC9B0121CC91E420C021F420E02B012AAC4824C0002824DF5
:20C2C00002021C421A023D400A00B0125CC90C5C0C5C0C5C1C821402B0121CC91E4200027D
:20C2E0001F420202B01278C3B01228C8824C160292922E021A02372C92921E021A023328B6
:20C300001C4210021C521202B0121CC9824C0C02824D0E021C421A023D40B400B0125CC937
:20C32000B0121CC91E420C021F420E02B012AAC4824C0002824D02021C421A023D400A00A3
:20C34000B0125CC90C5C0C5C0C5C1C821402B0121CC91E4200021F420202B01278C3B012DD
:20C3600028C8824C160292921E021A02022CB243160282433202BC3E3B408000013C0B43D3
:20C380000A1209120812071221833FB0807F7B243DB0807F05200C4E0D4F8B100DEB733CF9
:20C3A0000D5D084D4D1038F000FF0DD80F5F084F4F1038F000FF0FD8094C0A4D3DF08000CA
:20C3C000C14D00000BEA0BEF3BC07FFF3AD080003FD080000A9F0220099E0A240B2C0D4F9B
:20C3E0000F4A0A4D0C4E0E49094C81EB0000023C0B934F200C43084A881047488F10488F92
:20C400008F100E2438901900342C12C34F100E100C103CB0001002243CD000201883F5239B
:20C420000B930C24088C097E4A7F0C484A9312300C5C09694A6A17832C24F83F095E4A6F08
:20C4400009284A1009100C103CB0001002243CD0002017533CB00080072409634A6307634A
:20C460003CB00060012019C3179313383790FF0013347AC080008710D151000000000710E7
:20C480000AD70C490D4A21533741384139413A4130410D430C43F73F3D40FFFED1610000C3
:20C4A00000000D103C43EF3F03430A12091208120712074F07ED0A4F0A5A8A104A4A0A9330
:20C4C0004C247FD080000B4D0B5B8B104B4B0B933F247DD080000B5A3B807F00084309432A
:20C4E0000E9309241A430E100228085C096D091008100A5AF82B0E431A430F100228085CDC
:20C50000096D091008100E103EB0001002243ED000204A5AF223499302341B53033C0E6E10
:20C52000086849693EB000800724086349630B633EB00060012018C31B930F383B90FF00B2
:20C540000F3449598B1009DB075709100D490C483741384139413A4130410C430D43F83F29
:20C560003D40FFFE3C4307570D10F23F03430A12091208120712074F07ED0A4F0A5A8A10C5
:20C580004A4A0A933B247FD080000B4D0B5B8B104B4B0B932B247DD080000B8A3B507F00F4
:20C5A0003A401800084309430C8E0D7F032C0C5E0D6F12C3086809690C5C0D6D1A83F423CA
:20C5C000499303301A531B83EF3F0C7E0D7F086349630B631B930F383B90FF000F344959D4
:20C5E0008B1009DB075709100D490C483741384139413A4130410C430D43F83F3C40FFFEF5
:20C600003D4307570D10F23F03430A12091208120A4C784A0943113C0E4D0E8B1E831D53A1
:20C62000FD4EFFFF1F83FB23033C1D53FD4AFFFF12C3081019533992EC3718B3F6237B4A0D
:20C640007F4A0C4BB01212C90B4C0C4FB012CCC73CF00F000BDC3FF00F003F5003003F9055
:20C6600012000C207E4A3EB0800007247C4A4C4CB0120CC93EF07F000EDC0F5E3B90FF0F49
:20C68000CB233040B2C9A2426001B240D0026001F2C22500B2903075220210249253240234
:20C6A000B24064002002B24090011402B2431602924222021A02824322020B3C824324022D
:20C6C000B2406400200282432202D2D32100B2431602B29003002402052892433202B24093
:20C6E00003002402F2C2230000130A12091209430A431B430F930424094D0D4C0C430D3CE8
:20C700000C5C0D6D0969098E04281CD30B5BF82B033C095E0B5BF42B1B430C5C0D6D0969AD
:20C720000A6A098E0A7F04281CD30B5BF62B043C095E0A6F0B5BF12B0E490F4A39413A417C
:20C740003041B29030752202022C925322029292160222020C28829314020420F2F0BF00A2
:20C760002100053CF2D04000210092831402829320020E24F2B220000420B2406400200240
:20C78000023C92832002829320020220F2D2250000133DF00F003DE00F000D5D0D5D005D36
:20C7A00012C30C1012C30C1012C30C1012C30C1012C30C1012C30C1012C30C1012C30C10F1
:20C7C00012C30C1012C30C1012C30C1012C30C1012C30C1012C30C1012C30C1030410E4DF6
:20C7E0000C9302200D931F240E9305343DE33CE31C530D6315303B409F001B830C5C0D6DBE
:20C80000FC2B12C30D100C103F4006000D110C101F83FC378B100DDB0E5E0D100C103041B6
:20C820003D4000CF0C4330410B4D0E4B3BF0807F1C240B5B8B107ED080003B807F00153083
:20C840003B90100010340E110C101E930124FB3F1B8303300C5C0E6EFB3F0D9302343EE388
:20C860001E530C4E30413C4330410C4330410A1209123F40D4C93F90DAC916243F40DEC9A7
:20C880003F90E6C911243A40E6C93A80DEC90A110A113940DEC93C497F4C0F5F1F4FD4C93C
:20C8A0003D498F121A83F723B012CCC93040B4C90A120A430F9305343EE33FE31E530F63EC
:20C8C0001AD30D9305343CE33DE31C530D633AE3B012EAC61AB304243CE33DE31C530D63D2
:20C8E0002AB304243EE33FE31E530F633A4130413DF00F003DE00F000D5D005D0C5C0C5C22
:20C900000C5C0C5C0C5C0C5C0C5C0C5C0C5C0C5C0C5C0C5C0C5C0C5C0C5C30410D4C0D9365
:20C920000E243B408F001B830D5DFD2B4C4D8C108D104D4D8B100DDB12C30D100C1030411D
:20C9400031400004B012C8C90C930224B0126EC80C43B01200C01C43B012C2C90E430F4C29
:20C960001C430F5F0E6E0E9D01280E8D0C6CF92B30411F4C01000F9305241D53CD43FFFF3D
:20C980001F83FB2330410F4C0C4D3D4003000D5F1E4F0100304098C90E9306240F4C1F53EF
:20C9A000FF4DFFFF1E83FB2330413441354136413741384139413A41304132D01000FD3FF6
:0EC9C00003430343FF3F03431C433041304118
:18C9CE0002000200000072C90AC686C900003200CEC93202DAC9000251
:02FFDE00FFFF23
:02FFE000BAC99C
:02FFE40086C6CF
:02FFE600BAC996
:02FFEA00BAC992
:02FFEC00BAC990
:02FFEE00BAC98E
:02FFF000BAC98C
:02FFF20042C704
:02FFF400BAC988
:02FFF600BAC986
:02FFF800BAC984
:02FFFA00BAC982
:02FFFC00BAC980
:02FFFE0040C9F8
:00000001FF
